{
  "contractName": "Contacts",
  "abi": [
    {
      "constant": true,
      "inputs": [
        {
          "internalType": "uint256",
          "name": "",
          "type": "uint256"
        }
      ],
      "name": "users",
      "outputs": [
        {
          "internalType": "uint256",
          "name": "salaryId",
          "type": "uint256"
        },
        {
          "internalType": "string",
          "name": "name",
          "type": "string"
        },
        {
          "internalType": "string",
          "name": "userAddress",
          "type": "string"
        },
        {
          "internalType": "uint256",
          "name": "salary",
          "type": "uint256"
        }
      ],
      "payable": false,
      "stateMutability": "view",
      "type": "function"
    },
    {
      "constant": false,
      "inputs": [
        {
          "internalType": "uint256",
          "name": "_salaryId",
          "type": "uint256"
        },
        {
          "internalType": "string",
          "name": "_name",
          "type": "string"
        },
        {
          "internalType": "string",
          "name": "_userAddress",
          "type": "string"
        },
        {
          "internalType": "uint256",
          "name": "_salary",
          "type": "uint256"
        }
      ],
      "name": "addUser",
      "outputs": [
        {
          "internalType": "uint256",
          "name": "",
          "type": "uint256"
        }
      ],
      "payable": false,
      "stateMutability": "nonpayable",
      "type": "function"
    },
    {
      "constant": true,
      "inputs": [],
      "name": "getUsersCount",
      "outputs": [
        {
          "internalType": "uint256",
          "name": "",
          "type": "uint256"
        }
      ],
      "payable": false,
      "stateMutability": "view",
      "type": "function"
    },
    {
      "constant": true,
      "inputs": [
        {
          "internalType": "uint256",
          "name": "index",
          "type": "uint256"
        }
      ],
      "name": "getUser",
      "outputs": [
        {
          "internalType": "uint256",
          "name": "",
          "type": "uint256"
        },
        {
          "internalType": "string",
          "name": "",
          "type": "string"
        },
        {
          "internalType": "string",
          "name": "",
          "type": "string"
        },
        {
          "internalType": "uint256",
          "name": "",
          "type": "uint256"
        }
      ],
      "payable": false,
      "stateMutability": "view",
      "type": "function"
    }
  ],
  "bytecode": "0x608060405234801561001057600080fd5b50610913806100206000396000f3fe608060405234801561001057600080fd5b506004361061004c5760003560e01c80631382e75e14610051578063365b98b2146101cb578063a4a1e263146102ec578063b0467deb1461030a575b600080fd5b6101b56004803603608081101561006757600080fd5b81019080803590602001909291908035906020019064010000000081111561008e57600080fd5b8201836020820111156100a057600080fd5b803590602001918460018302840111640100000000831117156100c257600080fd5b91908080601f016020809104026020016040519081016040528093929190818152602001838380828437600081840152601f19601f8201169050808301925050505050505091929192908035906020019064010000000081111561012557600080fd5b82018360208201111561013757600080fd5b8035906020019184600183028401116401000000008311171561015957600080fd5b91908080601f016020809104026020016040519081016040528093929190818152602001838380828437600081840152601f19601f8201169050808301925050505050505091929192908035906020019092919050505061042b565b6040518082815260200191505060405180910390f35b6101f7600480360360208110156101e157600080fd5b81019080803590602001909291905050506104f9565b604051808581526020018060200180602001848152602001838103835286818151815260200191508051906020019080838360005b8381101561024757808201518184015260208101905061022c565b50505050905090810190601f1680156102745780820380516001836020036101000a031916815260200191505b50838103825285818151815260200191508051906020019080838360005b838110156102ad578082015181840152602081019050610292565b50505050905090810190601f1680156102da5780820380516001836020036101000a031916815260200191505b50965050505050505060405180910390f35b6102f4610666565b6040518082815260200191505060405180910390f35b6103366004803603602081101561032057600080fd5b8101908080359060200190929190505050610672565b604051808581526020018060200180602001848152602001838103835286818151815260200191508051906020019080838360005b8381101561038657808201518184015260208101905061036b565b50505050905090810190601f1680156103b35780820380516001836020036101000a031916815260200191505b50838103825285818151815260200191508051906020019080838360005b838110156103ec5780820151818401526020810190506103d1565b50505050905090810190601f1680156104195780820380516001836020036101000a031916815260200191505b50965050505050505060405180910390f35b600084600080805490508154811061043f57fe5b90600052602060002090600402016000018190555083600080805490508154811061046657fe5b9060005260206000209060040201600101908051906020019061048a929190610839565b5082600080805490508154811061049d57fe5b906000526020600020906004020160020190805190602001906104c1929190610839565b508160008080549050815481106104d457fe5b9060005260206000209060040201600301819055506000805490509050949350505050565b6000818154811061050657fe5b9060005260206000209060040201600091509050806000015490806001018054600181600116156101000203166002900480601f0160208091040260200160405190810160405280929190818152602001828054600181600116156101000203166002900480156105b85780601f1061058d576101008083540402835291602001916105b8565b820191906000526020600020905b81548152906001019060200180831161059b57829003601f168201915b505050505090806002018054600181600116156101000203166002900480601f0160208091040260200160405190810160405280929190818152602001828054600181600116156101000203166002900480156106565780601f1061062b57610100808354040283529160200191610656565b820191906000526020600020905b81548152906001019060200180831161063957829003601f168201915b5050505050908060030154905084565b60008080549050905090565b6000606080600080858154811061068557fe5b906000526020600020906004020160000154600086815481106106a457fe5b9060005260206000209060040201600101600087815481106106c257fe5b9060005260206000209060040201600201600088815481106106e057fe5b906000526020600020906004020160030154828054600181600116156101000203166002900480601f0160208091040260200160405190810160405280929190818152602001828054600181600116156101000203166002900480156107875780601f1061075c57610100808354040283529160200191610787565b820191906000526020600020905b81548152906001019060200180831161076a57829003601f168201915b50505050509250818054600181600116156101000203166002900480601f0160208091040260200160405190810160405280929190818152602001828054600181600116156101000203166002900480156108235780601f106107f857610100808354040283529160200191610823565b820191906000526020600020905b81548152906001019060200180831161080657829003601f168201915b5050505050915093509350935093509193509193565b828054600181600116156101000203166002900490600052602060002090601f016020900481019282601f1061087a57805160ff19168380011785556108a8565b828001600101855582156108a8579182015b828111156108a757825182559160200191906001019061088c565b5b5090506108b591906108b9565b5090565b6108db91905b808211156108d75760008160009055506001016108bf565b5090565b9056fea265627a7a7231582059272340e83fcd53556e4866b4aad3e6a94a49cf8d3ef05ccba1baf4ad0fcf7664736f6c63430005100032",
  "source": "// SPDX-License-Identifier: UND\r\npragma solidity >=0.4.22 <0.9.0;\r\n\r\n\r\n\r\ncontract Contacts {\r\n    struct User {\r\n        uint salaryId;\r\n        string name;\r\n        string userAddress;\r\n        uint salary;\r\n    }\r\n    User[] public users;\r\n\r\n    function addUser(uint _salaryId, string memory _name, string memory _userAddress, uint _salary) public returns(uint) {\r\n        // users.length++;\r\n        users[users.length].salaryId = _salaryId;\r\n        users[users.length].name = _name;\r\n        users[users.length].userAddress = _userAddress;\r\n        users[users.length].salary = _salary;\r\n        return users.length;\r\n    }\r\n\r\n    function getUsersCount() public view returns(uint) {\r\n        return users.length;\r\n    }\r\n\r\n    function getUser(uint index) public view returns(uint, string memory, string memory, uint) {\r\n        return (users[index].salaryId, users[index].name, users[index].userAddress, users[index].salary);\r\n    }\r\n}",
  "sourcePath": "F:\\dApp\\dApp_09_19_a\\backend\\contracts\\Contacts.sol",
  "compiler": {
    "name": "solc",
    "version": "0.5.16+commit.9c3226ce.Emscripten.clang"
  },
  "schemaVersion": "3.4.10",
  "updatedAt": "2022-09-20T16:15:39.144Z",
  "networkType": "ethereum",
  "devdoc": {
    "methods": {}
  },
  "userdoc": {
    "methods": {}
  }
}